:020000040800F2
:10000000B0100020A90100083B350008852D00082C
:100010003935000823150008233C000800000000C3
:10002000000000000000000000000000DB380008B5
:100030003918000800000000D93800084D390008C0
:10004000C3010008C3010008C3010008C301000880
:10005000C3010008C3010008C3010008C301000870
:10006000C3010008C3010008C3010008C301000860
:10007000C3010008C3010008C3010008C301000850
:10008000C3010008C3010008C3010008C301000840
:10009000C3010008C3010008C3010008C301000830
:1000A000C3010008B1390008C3010008C3010008FA
:1000B000BD390008C3010008C3010008C3010008DE
:1000C000C3010008C3010008C3010008C301000800
:1000D000C3010008C3010008C3010008C3010008F0
:1000E0003B180008C3010008C301000800F002F833
:1000F00000F04AF80AA090E8000C82448344AAF178
:100100000107DA4501D100F03FF8AFF2090EBAE875
:100110000F0013F0010F18BFFB1A43F0010318473B
:100120004C6400006C640000103A24BF78C878C1A9
:10013000FAD8520724BF30C830C144BF04680C60ED
:10014000704700000023002400250026103A28BF35
:1001500078C1FBD8520728BF30C148BF0B60704739
:10016000662904F01882642900F09E800020704700
:100170001FB500F099FC04000020002103F0FEFFF1
:10018000E0601FBD10B510BD00F08EFD1146FFF7F9
:10019000EFFF03F0A5FD00F0ACFD03B4FFF7F2FFA5
:1001A00003BC00F0EFFD0000094880470948004704
:1001B000FEE7FEE7FEE7FEE7FEE7FEE7FEE7FEE717
:1001C000FEE7FEE704480549054A064B7047000074
:1001D000AF390008ED000008B00A0020B010002080
:1001E000B00C0020B00C002010B54C1084EA530471
:1001F00004D54042C1F1000138BF491E1B4204D55D
:100200005242C3F1000338BF5B1E00F04FF914F0F7
:10021000804F04D04042C1F1000138BF491E14F0A4
:10022000004F04D05242C3F1000338BF5B1E10BD23
:100230000FB41CB5074B06AA7B446946009005988D
:1002400000F019FC0020694600F028FC1CBC5DF899
:1002500014FB00006108000070B504468569006861
:10026000C10601D5302600E02026C00707D070BDAA
:10027000D4E9012130469047206A401C20626D1E5F
:10028000F6D570BD70B5044685690078C00707D102
:1002900070BDD4E9012120209047206A401C2062D3
:1002A0006D1EF6D570BD00002DE9F0410646002414
:1002B00010687529314616A510D0AFF300800028CC
:1002C00002DA404213A507E031688A0701D512A57A
:1002D00002E0490704D511A5012401E0AFF3008035
:1002E00000210A2206F1240709E0B0FBF2FCB0FB72
:1002F000F2F302FB1C00303078541846491C0028E9
:10030000F3D123462A463046BDE8F04100F045B916
:10031000000000002D0000002B0000002000000065
:100320002DE9F05F894604464FF0000ADFF824B15A
:10033000FB44C0F820A02046E168884700287DD013
:10034000252806D0D4E901219047206A401C20626C
:10035000F1E700255F462046E168884720280646E9
:1003600007DB312E05D2B81910F8200C08B105436F
:10037000F1E7A80701D525F00405C4F81CA0002763
:10038000C4F818A02A2E09D0304603F06FFC38B309
:1003900004EB8708303EC8F8186019E059F8041BD0
:1003A000204604EB87029161E1688847012F0646E9
:1003B00018D1E069002820DA25F020051DE0D8F8E2
:1003C000180000EB800006EB40003038C8F8180039
:1003D0002046E1688847064603F048FC0028EED135
:1003E000012F0AD02E2E08D12046E16888477F1CB5
:1003F0000646022F45F02005C4DBA069002803DA79
:10040000404245F00105A061E80701D025F0100544
:10041000A6B1A6F14100192802D8203645F400659E
:100420004A463146204625604D46FFF799FE60B1A9
:10043000012807D0ED1D25F0070000E007E000F1DE
:10044000080978E705F1040975E730467AE7206A7C
:10045000BDE8F09F906100004FF0000200B5134628
:1004600094469646203922BFA0E80C50A0E80C50D4
:10047000B1F12001BFF4F7AF090728BFA0E80C5085
:1004800048BF0CC05DF804EB890028BF40F8042B7E
:1004900008BF704748BF20F8022B11F0804F18BFEB
:1004A00000F8012B704770477047704753EA020C01
:1004B00000F069802DE9F04B4FF00006002B1FBFC4
:1004C000B3FA83F503FA05F424FA05F65E4012BF89
:1004D0001643B2FA82F502FA05F4C5F120051EBFF3
:1004E00022FA05FC44EA0C04203556EA044C4FEA93
:1004F000144418BF641C4FF000084FF000099042EC
:1005000071EB030C39D3002919BFB1FA81F701FA55
:1005100007F6B0FA80F700FA07F6C7F120071EBF0A
:1005200020FA07FC46EA0C062037B6FBF4FCA7EBE2
:100530000507103F07F01F0BCBF120060CFA0BFB51
:100540002CFA06F644BFB3460026202FA4BF5E4611
:100550004FF0000B5BEA060C08BF4FF0010B19EBE4
:100560000B09ABFB027C48EB0608C01B06FB02CC68
:100570000BFB03CC71EB0C01C1E70B460246414675
:100580004846BDE8F08B13B54FF000004FF0000176
:10059000AFF30080BDE81C4070472DE9F0470D46E1
:1005A00099469246044600F124080168880604D55D
:1005B000E06921F01001216000E00120A84201DD86
:1005C000471B00E00027A1697A1902EB0900081A0D
:1005D000A0612078C00602D42046FFF73DFE002629
:1005E00008E0D4E901211AF806009047206A401C6F
:1005F000761C20624E45F4DB2078C0060AD52046E2
:10060000FFF72AFE06E0D4E9012130209047206A56
:10061000401C2062381EA7F10107F4DC07E0D4E992
:10062000012118F805009047206A401C2062281E0E
:10063000A5F10105F3DC2046FFF724FE2078000633
:1006400002D50220BDE8F0870120FBE770472DE9C5
:10065000FF4F0C461E464FF0FF378BB0D2E900012A
:10066000DDF860800A908A46C1F30A5505B93D4617
:10067000002108464FF00000BAF1000F00F44000DE
:1006800005DA00EB80004FF4400101EA50004FEA28
:100690009059B9F1010F00DDB9460A9850EA4A00B5
:1006A0000ED044F61050A5F2FF3545432F14B8F193
:1006B000000F1ED07542291E1EDDC9F100021CE08C
:1006C000B8F1010F4FF0000001D0302103E0F243F8
:1006D00005E02154401CB042FBDB304600220021E3
:1006E00021540B99C1F80880C1E900200FB0BDE882
:1006F000F08FBD1B6D1CDEE74A4600DA694206A892
:1007000000F05CFA06AB93E8070003AB83E8070050
:1007100050460A9900F03DFB8DE80700A0F5005017
:100720001F3800900398002D0ADD42F21F014A464F
:100730000844002303A90390684600F0A6FD09E0E1
:10074000A0F500504A461F38002303A903906846CD
:1007500000F0B0FD8DE807000004000C03D04FF05E
:10076000FF30410800E01046B8F1000F03D000222E
:10077000009215461EE0751E05D400F099F930323E
:1007800062556D1EF9D5B3460122084302D00022FE
:100790007F1C04E02078302801D100227F1E002A2F
:1007A000099784D01DE0112D07DA00F081F930326D
:1007B00062556D1C50EA0102F5D1084302D0009841
:1007C000C8B10EE00021681E05E0235C625C635442
:1007D0002254401E491C8142F7DBAB46A81B401E39
:1007E0000990002004F80B000B98099AC0F80880C3
:1007F000C0E9002B7AE711264FF0000857E72DE9F2
:10080000F04F88460446D21D22F0070191B0D1E98D
:100810000001CDE90A0103F005FA02460B98C00F6A
:1008200001D02D2007E02068810701D52B2002E0B0
:10083000202101EAC000032A099001D0072A05DB24
:1008400003464146204600F079F90BE12078800606
:1008500001D5E06900E00620B8F1650F814606D0B9
:10086000B8F1660F18D0B8F1670F70D131E00020F1
:10087000B9F1110F009001DB112301E009F101032F
:100880000AAA01A90CA8FFF7E2FEDDE90C70002618
:1008900009F10105834647E001204B4600904FF0E7
:1008A00000470AAA01A90CA8FFF7D1FEDDE90DB0A7
:1008B0000C995D46002610B909F101000D18B9EB3D
:1008C000050003D4C0F1FF3609F10105A5EB0900CD
:1008D0002BE0B9F1010F01DA4FF001090020B9F165
:1008E000110F0090484601DD112300E003460AAADB
:1008F00001A90CA8FFF7ABFEDDE90C704D46002600
:100900008346207800070AD4AB4500DA5D4601A88B
:10091000012D04DD411911F8011C302907D04F4584
:1009200002DA17F1040F04DA012082460FE06D1E8F
:10093000EEE7002F02DCED1B3E4403E0781CA842EA
:1009400000DD7D1CB81B00F1010A4FF00047207844
:10095000000703D4AA4501DB4FF0FF3A0021B7F1AD
:10096000004F0DF143088DF8431024D002202B23B3
:10097000002F01DA7F422D230A21021EA0F101007F
:1009800000DC5FB197FBF1FC97FBF1F201FB1C7CF3
:1009900017460CF1300C08F801CDEEE7A8F1010084
:1009A00003702188090501D5452100E06521A0F1EA
:1009B000010800F8011C09980FA9A1EB0807FF1D09
:1009C00000B10120411901EBEA70A1693844081A0D
:1009D000401EA0612078C00602D42046FFF73CFCF0
:1009E000099828B1D4E901219047206A401C20626F
:1009F0002078C00622D52046FFF72EFC1EE0002EF0
:100A000004DBB34502DD01A8805D00E03020D4E9BD
:100A100001219047206A401C2062761CAAF1010047
:100A20005FEA000A0AD100F03FF8C0680168405C44
:100A3000D4E901219047206A401C2062281EA5F1BC
:100A40000105DCDC07E0D4E9012118F8010B90472F
:100A5000206A401C2062381EA7F10107F3DC204603
:100A6000FFF710FC032011B041E6000001694A1CA9
:100A700002610878704700B58FB0CDE901310021DF
:100A8000059105497944CDE9031011466846FFF701
:100A900047FC0FB000BD0000E5FFFFFF0A6802F849
:100AA000010B0A607047000000487047700A002080
:100AB00030B5B0F10A024FEA900E71F100034EEA30
:100AC000817EB0EB0E0061EB91014FEA101E4EEA01
:100AD000017E10EB0E0041EB11114FEA102E4EEA91
:100AE000016E10EB0E0041EB11214FEA104E4EEA61
:100AF000014E10EB0E0041EB1141401841F1000195
:100B00004FEAD00040EA41704FEAD10110EB800576
:100B10004FEA810444EA907444EB01046D1944EBFC
:100B20000404521BA3414FF0000348BF0A3200D512
:100B300030BD401C41F1000130BD00002DE9F04105
:100B40001F46044603260168072A01F4006004DBFF
:100B500008B116A505E016A503E008B115A500E04B
:100B600015A521F010002060A069C01EA0610FB182
:100B7000401EA0612046FFF76FFB4FB1D4E9012171
:100B800038469047206A401C2062C01C206206E064
:100B9000206AFAE7D4E9012115F8010B9047761E87
:100BA000F8D22046FFF76EFBBDE8F0814E414E00C3
:100BB0006E616E00494E4600696E66002DE9F04791
:100BC000814616468AB0354878440DC88DE80D0038
:100BD00032487844801C03AC0DC884E80D0041F60F
:100BE0009B300844372190FBF1F290FBF1F5A5F121
:100BF000800501FB12041B3C02D56442012000E089
:100C00000020DFF898A080460027FA44AAF1BE0A27
:100C10000EE0E0070AD03246684607EB47010123A1
:100C20000AEB810100F046FB8DE8070064107F1C91
:100C3000002CEED1194F7F44AE3F19E0E80715D0E4
:100C400007EB04100DF1180A90E80E008AE80E0078
:100C5000C068F04201D1981908903246012306A9D4
:100C600003A800F027FB03AB83E807006D10641CAA
:100C7000002DE3D14FF0010332466946B8F1000F71
:100C800003A802D000F001FB01E000F013FBC9E96A
:100C90000001C9F808200AB0BDE8F08788590000B3
:100CA00000487047500A00207546FFF7F9FFAE462E
:100CB00005006946534620F00700854618B020B568
:100CC000FFF780FABDE820404FF000064FF0000724
:100CD0004FF000084FF0000B21F00701AC46ACE8E4
:100CE000C009ACE8C009ACE8C009ACE8C0098D4651
:100CF000704710B50446AFF300802046BDE81040B1
:100D0000FFF74BBA4FF0013C50F8042B51F8043B6D
:100D10009A4221D1A2EB0C03934313EACC1317D1CF
:100D200050F8042B51F8043B9A4215D1A2EB0C0366
:100D3000934313EACC130BD150F8042B51F8043B26
:100D40009A4209D1A2EB0C03934313EACC13DBD0F4
:100D50004FF00000704700BFD01A01BAB1FA81F11C
:100D600001F0180122FA01F0CB40C1F12001DBB201
:100D7000C0B2C01A2CFA01F3D11A914311EAC3117F
:100D8000E6D1704701491820ABBEFEE726000200FD
:100D900070475FEA400C08BF91F0000F4FEA8C23C8
:100DA0004FEAC12243EA51514FEA1C5018BF00F5E7
:100DB000F0404FEA300018BF41F000415FEA6C5C40
:100DC00000F02980BCF1FF3F08BF40F08040704731
:100DD000130C06BF12044FF0100C4FF0000C130E52
:100DE00004BF12020CF1080C130F04BF12010CF126
:100DF000040C930F04BF92000CF1020CD30F04BF3C
:100E000052000CF1010C11464FF00002A0F11F003E
:100E1000A0EB0C00704711F0004F08BF704731F095
:100E200000413FF4D5AF0B0C06BF09044FF0100C86
:100E30004FF0000C0B0E04BF09020CF1080C0B0F55
:100E400004BF09010CF1040C8B0F04BF89000CF1E5
:100E5000020CCB0F04BF49000CF1010CCCF12003B4
:100E6000A0EB0C0022FA03F302FA0CF241EA0301B0
:100E700000F10100704720F07F4C80EA030023F06E
:100E80007F47ACEB070303F57C5300F0004003F110
:100E9000FF032DE980494FEA154B09B44FEA14438B
:100EA00025EA0B4E24EA03480FF2042606EB13272B
:100EB00049083E785FEA320203FB0667C7F5000780
:100EC00007FB06F64FEA54374FEAD64606F102060C
:100ED00007FB066CCCF1005C4FEA1C472CEA074C80
:100EE00007FB06F40CFB06F504EB15464FEA9616D5
:100EF00034BF00204FF000404FEAD13706FB07FC1B
:100F00004FEA1C4C0CFB0BF7D21B03FB0CF761EBFD
:100F100007010CFB0EF7B0EB074072EB17420CFB1E
:100F200008F734BFA2EB0742B2EB074261EB17416F
:100F30004FEA0C444FEA910706FB07FC4FEA1C4CB2
:100F40000CFB0BF7B0EBC74072EB573203FB0CF70F
:100F500034BFA2EBC742B2EBC74261EB57310CFB87
:100F60000EF7B0EBC70072EB57720CFB08F734BFFB
:100F7000A2EBC702B2EBC70261EB5771039F4FEAC6
:100F8000816141EA921104EBCC044FEAD1374FEA78
:100F9000826206FB07FC42EA90124FEA80604FEA49
:100FA0001C4C0CFB0BF7D21B03FB0CF761EB07018E
:100FB0000CFB0EF7B0EB074072EB17420CFB08F787
:100FC00034BFA2EB0742B2EB074261EB17414FEA95
:100FD0008C554FEA910704EB9C2406FB07FC4FEA73
:100FE0001C4C0CFB0BF7B0EBC74072EB573203FB0A
:100FF0000CF734BFA2EBC742B2EBC74261EB5731EB
:101000000CFB0EF7B0EBC70072EB57720CFB08F746
:1010100034BFA2EBC702B2EBC70261EB577115EB0D
:101020004C254FEA816141EA92114FEA82624FEA10
:10103000D13742EA901206FB07FC44F100044FEA64
:1010400080604FEA1C4C0CFB0BF7D21B03FB0CF728
:1010500061EB07010CFB0EF7B0EB074072EB174298
:101060000CFB08F734BFA2EB0742B2EB074261EB7F
:10107000174115EB1C154FEA813141EA92414FEAC5
:10108000823242EA90424FEA80304FEA0C7644F1D5
:10109000000448EA03434EEA0B484FF0000EB2EB5F
:1010A000080C71EB030724BF624639464EEB0E0E67
:1010B0004FF0000B0018524149414BEB0B0BB2EBC8
:1010C000080C71EB03077BF1000B24BF6246394625
:1010D0004EEB0E0E4FF0000B0018524149414BEB06
:1010E0000B0BB2EB080C71EB03077BF1000B24BF79
:1010F000624639464EEB0E0E51EA020718BF46F023
:10110000010616EB0E7655F1000254F1000103D5ED
:10111000BDE88901BDE80088BDE88901BDE8004857
:10112000B619524141EB0101A3F1010370478080E0
:101130007F7E7D7C7B7A7978777676757473727131
:1011400071706F6E6E6D6C6C6B6A6A6968686766E9
:1011500066656464636362616160605F5F5E5E5D7B
:101160005D5C5C5B5B5A5A595958585757565655EF
:1011700055555454535352525251515050504F4F51
:101180004F4E4E4D4D4D4C4C4C4B4B4B4A4A4A49A1
:1011900049494848484747474746464645454544E4
:1011A0004444444343434342424242414141002B71
:1011B0009C4630D477002BD01CB54FEA370703B4D8
:1011C0004FF010004FF01001BAF1000F06D0BCF143
:1011D000000FDCBF40F0080040F008014FF00000B5
:1011E0000FBCBDE810400BF1010BBBF1010F08BFB4
:1011F0005FEA170722BF12F1010211F101014FF05E
:10120000004143F1000300F0004043EA0000704752
:10121000F9D35708D0E746EA064613F1400F4FEAE4
:1012200016461FDD13F1200FDFBF16430A460021CB
:1012300020335B42BED0C3F1200746EA064602FADD
:1012400007F74FEA164646EA0706C3F1200722FAD7
:1012500003F201FA07F721FA03F14FF0000342EA23
:101260000702A7E746EA020646EA06464FEA16469E
:1012700046EA0106BCBF46EA0646360C4FF00003BC
:101280004FF000024FF0000194E72DE9804C9A46A0
:10129000934670B491E8380007C831EA400C48BF63
:1012A00034EA430C03D5FFF7E6FDFFF780FFF0BCFF
:1012B000BDE8008C2DE9804C9A46934670B491E8C5
:1012C000380007C810F0804F08BF13F0804F03D1DB
:1012D00000F005F8FFF76BFFF0BCBDE8008C20F0D4
:1012E0007F4780EA030023F07F4C07EB0C03A3F554
:1012F0007C5300F00040A3F1FE0392F0000F00F0D9
:10130000B38095F0000F00F077802DE901494FEA96
:1013100011404FEA144621EA004800FB06FC24EA8B
:10132000064708FB06F607FB08F800FB07F718EB73
:1013300006484CEB164C4FEA124B18EB07484FEAA5
:1013400015464CEB174022EA0B4E0BFB06FC25EA38
:1013500006470EFB06F607FB0EFE0BFB07F71EEB20
:10136000064E4CEB164C4FF000061EEB074E4CEBB6
:10137000174B18EB0B0840F1000018EB0E0B58EB65
:10138000000840F100008F1A4FF000013CBFC94334
:10139000661B14BFB5EB040C00213CBFC943F61B10
:1013A0004FEA17444EEA8E0E27EA04454FEA1C47DF
:1013B00004FB07622CEA074C05FB07F70CFB05F65C
:1013C00004FB0CFC16EB074642EB174216EB0C46EF
:1013D00042EB1C421BEB060658EB0202414146EA77
:1013E0009E0601D5BDE80189B619524141EB0101C4
:1013F000A3F10103BDE801894FEA14454FEA114703
:1014000024EA054621EA074C05FB07F406FB07F72B
:101410000CFB06F105FB0CFC11EB074144EB1744F8
:101420004FEA124711EB0C4144EB1C4422EA074CF3
:1014300005FB07F206FB07F70CFB06F605FB0CFCA9
:1014400016EB074642EB174216EB0C4642EB1C45E7
:101450006A1854F1000148BF7047B619524141EB78
:101460000101A3F10103704795F0000F37D04FEA57
:1014700011424FEA144721EA024624EA074C02FBD4
:1014800007F106FB07F70CFB06F402FB0CFC14EB60
:10149000074441EB17414FEA154714EB0C4441EB6D
:1014A0001C4125EA074C02FB07F506FB07F70CFB7E
:1014B00006F602FB0CFC16EB074645EB174516EB50
:1014C0000C4645EB1C42121951F1000148BF704710
:1014D000B619524141EB0101A3F1010370474FEAF4
:1014E00014454FEA114724EA054621EA074C05FB5B
:1014F00007F106FB07F70CFB06F24FF0000605FBB1
:101500000CFC12EB074241EB174112EB0C4251EB82
:101510001C4148BF7047921841EB0101A3F1010340
:101520007047FEE710B500231A4603E030F812407A
:10153000521C23448A42F9DB93FBF1F0C11700EB04
:101540009170801010BD000070B5002402F0C6F943
:10155000124D04E0641CE4B2012002F09BFB102158
:10156000284600F0CDFA10B1642CF3D30FE0642CC0
:101570000DD2002404E0641CE4B2012002F08AFBD6
:101580001021284600F0BCFA18B1F02C04D3012039
:1015900070BDF02CEFD3FAE7002070BD00080140C9
:1015A00010B5044600F0A2FE0349B0FBF1F161431F
:1015B000491EFDD210BD000000093D0010B52820D5
:1015C000FFF7EEFF4FF40071034800F099FA08B1FD
:1015D000002010BD012010BD000C01401FB50A4BBA
:1015E0004FF40072012120B100200092CDE90101E9
:1015F00004E00320CDE90021CDE902106946184638
:1016000000F08EF91FBD0000000C014070B50D4DBB
:101610004FF400742146284600F072FA0028F9D0F1
:101620002820FFF7BDFF2146284600F069FA002870
:1016300006D02146284600F063FA0028F9D101209F
:1016400070BD0000000C014070B500242546600606
:10165000040EFFF7DBFF08B144F001046D1CEDB28E
:10166000082DF4D3204670BD30B58FB0202104A8DA
:10167000FEF7F2FE00200290039000F04FF8FFF713
:101680009DFFC8B31F4D4FF400742146284600F05B
:1016900037FA0028F9D02146284600F031FA002810
:1016A000F9D100240DF10805FFF7CEFF2855641C81
:1016B000E4B2052CF8D39DF808209DF809309DF878
:1016C0000A109DF80B00D4180D182C449DF80C50EE
:1016D000AC4212D1CDE900100BA104A8FEF7A8FD81
:1016E00001200090082304AA1421002002F094F89D
:1016F00001F0FAFF0FB030BD01E00020FAE7022050
:10170000F8E70000000C014025642E2564252552D1
:10171000482025642E2564430D0A000010B50020E2
:10172000FFF75CFF00224FF40071054800F0EDF96F
:10173000142000F0C3F8BDE810400120FFF74EBFB1
:10174000000C014010B500F02FF8BDE81040FFF785
:10175000FBBE00002DE9F0410026124F354600BFC8
:1017600002F0D8F800221021384600F0CEF90A2005
:1017700002F090FA02F0B2F81021384600F0C0F9F9
:1017800001280DD000242D2002F084FAAC4034430F
:101790006D1CEDB2E6B2082DE2D33046BDE8F08113
:1017A0000124F0E70008014010B502F0B3F80A4C3C
:1017B00000221021204600F0A8F940F2EE2002F0AD
:1017C00069FA01221021204600F09FF9BDE810407F
:1017D0000F2002F05FBA00000008014070B5054616
:1017E00002F098F8134E012425424FF000024FF00A
:1017F000100130460BD100F088F9462002F04AFA79
:1018000001221021304600F080F902200AE000F0A9
:101810007CF9092002F03EFA01221021304600F046
:1018200074F9372002F036FA600010F0FF04DBD1C3
:1018300070BD000000080140704710B54FF48050A3
:1018400000F062F84FF4005000F05EF8BDE8104080
:101850004FF4804000F058B872B6FEE710B5FFF7BD
:10186000A3FFFFF771FECC20FFF7B8FF4420FFF77E
:10187000B5FF4FF4AF7002F00DFAFFF795FFFFF7D9
:1018800063FECC20FFF7AAFFBE20FFF7A7FFFFF7FC
:1018900061FF0446FFF75EFF000201B251EA040057
:1018A0006FF0030401D5C043401C02F0B7FC224690
:1018B00002F0A5FEBDE8104002F076BC70B504460B
:1018C00000F028F90546601C02D004480078044462
:1018D00000F020F9401BA042FAD370BD3C0000206C
:1018E0000849B0F5805F08D0B0F5005F07D0B0F5CB
:1018F000804F01D10220087070470020FBE70120D3
:10190000F9E7000010000020044910B50A680242FF
:1019100002D00860FFF7E4FF10BD0000140401408E
:101920002DE9F84FDFF8B8910024A9F1040B234604
:101930000F2709F1040AABF1040EC9E00125A54007
:101940002A40AA427DD1674ED1F804C0ACEB06080C
:10195000B44532D014DCBCF1030F3AD009DCBCF141
:10196000000F2AD0BCF1010F1CD0BCF1020F31D105
:101970001DE0BCF1110F17D0BCF1120F2AD119E0F4
:10198000B8F5881F19D006DCB8F5803F15D0B8F53A
:10199000801F1FD111E0B8F5001F0ED0B8F5041F4D
:1019A00018D10AE0CB6815E0CB681B1D12E0CB68AC
:1019B00008330FE0CB680C330CE08B682BB1012BA4
:1019C0004FF0080303D0456104E0042302E0056101
:1019D00000E00023FF2A01D8064601E000F10406DA
:1019E0004FEA840501D9A5F12005D6F8008007FA51
:1019F00005FC28EA0C0803FA05F548EA0508C6F8CC
:101A000000804D68ED0062D5374DAE6946F00106A5
:101A1000AE61AD6924F0030605F001050095334D74
:101A200006EB050CDCF80850A607360F07FA06F897
:101A300025EA0805DFF8B880404503D14FF00008DB
:101A400017E044E0DFF8AC80404502D14FF00108D8
:101A50000FE0DFF8A480404502D14FF0020808E013
:101A6000DFF89880404502D14FF0030801E04FF0C5
:101A7000040808FA06F848EA0508CCF808804D681A
:101A8000D9F80060ED024D4601D5164300E09643BB
:101A90002E604D68DAF80060AD02554601D5164358
:101AA00000E096432E604D68DBF80060AD035D46B4
:101AB00001D5164300E096432E604D68DEF80060C5
:101AC000ED03754601D5164300E096432E60641C75
:101AD0000D682A46E5407FF431AFBDE8F88F00007D
:101AE00008040140000011100010024000000140F5
:101AF00000080140000C01400010014000140140AA
:101B00008068084000D0012070470AB10161704729
:101B10000904FBE701488068704700003C00002092
:101B200070B5040025D094F83D00002520B984F854
:101B30003C50204600F07EFA242084F83D002068C6
:101B4000016821F0010101602068016841F4004151
:101B500001602068016821F40041016000F0CCFBC5
:101B60004D4A6168914201D84C4900E04C49884295
:101B700001D2012070BD4B492368B0FBF1F15E68D2
:101B800026F03F060E435E606368934206D94FF429
:101B9000967359434FF47A73B1FBF3F12368491CF0
:101BA0001E6A26F03F06314319626168914210D8DF
:101BB0004900401EB0FBF1F2521CC2F30B02042A92
:101BC00001D2042022E0B0FBF1F0401CC0F30B0076
:101BD0001CE0A268F2B301EBC10303EB0116431E44
:101BE000B3FBF6F35B1C43F480431B0549D092B36F
:101BF00001EBC10202EB0111401EB0FBF1F0401CF1
:101C0000C0F30B0040F4804040F400402168CA69F2
:101C10004CF6FF739A431043C861D4E9071001439F
:101C20002068026822F0C00211430160D4E9030178
:101C300001432068826848F2FF339A431143816070
:101C4000D4E9050108432168CA6822F0FF02104365
:101C5000C86001E00EE016E02068016841F0010173
:101C600001602564202084F83D00256384F83E50FF
:101C7000002070BD01EB4106431EB3FBF6F35B1C75
:101C8000B3E70120C2E701EB4101401EB0FBF1F0D8
:101C9000401CC0F30B00B7E7A086010080841E0043
:101CA00000093D0040420F002DE9FF4F83B00025A1
:101CB000DDE910799A4693460446DDF848800095A0
:101CC000FFF728FF064694F83D0020287CD1192311
:101CD000012288492046009601F06AF90028F5D1D2
:101CE00094F83C0001286FD0012084F83C00206863
:101CF0000168C90703D1016841F001010160206852
:101D0000016821F400610160222084F83D00402038
:101D100084F83E0025646762A4F82A90608D2085CF
:101D20007548E062CDE9008653465A46204604993C
:101D300001F040F800287CD1208DDFF8C0912027E9
:101D400068B1012814D00228206801681ED041F42F
:101D5000806101602068416980690090BCE0206872
:101D6000416981690091016841F400710160B3E04B
:101D70002068016821F48061016072B620684169C1
:101D800081690091016841F400710AE041F4006149
:101D9000016072B62068416981690091016821F48F
:101DA0008061016062B697E0032865D801280CD0F5
:101DB000022843464FF000024946204600960BD0C9
:101DC00001F0F6F8A8BB0CE091E03246414620460F
:101DD00001F094F968BB72E001F0EAF848BB72B612
:101DE00033E02068016821F48061016072B62068E8
:101DF0000069616A0870606A401C6062208D401E44
:101E00002085608D401E60853D4846F2A81100681F
:101E1000B0FBF1F0C0EBC00000EB80000090401E72
:101E2000009007D020684069C04340070DD5009856
:101E3000F5E727E044F8305F6773A573206940F049
:101E40002000206162B625731CE02068016841F41F
:101E50000071016020680069616A0870606A401C56
:101E60006062218D491E2185618D491E618562B6A2
:101E700021680969017026E032464146204601F09A
:101E80003DF918B1012007B0BDE8F08F2068006966
:101E9000616A0870606A401C6062208D401E81B2D9
:101EA0002185608D401E608520684269D2435207BB
:101EB00012D4032903D1016821F4806101602068F4
:101EC0000069616A0870606A401C6062208D401E73
:101ED0002085608D401E6085208D00287FF464AFD2
:101EE00084F83D7084F83E5084F83C50CBE70220E3
:101EF000C9E70000020010000000FFFF040001001D
:101F0000480000202DE9FF4F83B09A46DDE9119784
:101F100093460446DDF84080FFF7FCFD054694F843
:101F20003D0020287FD119230122404920460095F9
:101F300001F03EF8002876D194F83C00012872D0D8
:101F4000012084F83C0020680168C90703D10168BA
:101F500041F0010101602068016821F40061016025
:101F6000212084F83D00402084F83E0000262664AD
:101F7000C4F82480A4F82A90608D20852C48E06263
:101F8000CDE9007553465A462046049900F090FF6B
:101F900070B930E02A463946204601F0E7F858B1DA
:101FA000206C042804D12068016841F400710160AC
:101FB000012007B0BDE8F08F606A216800780861F1
:101FC000606A401C6062218D491E89B22185628D44
:101FD000521E628522685369DB435B070BD469B1EB
:101FE00000781061606A401C6062208D401E208570
:101FF000608D401E6085208D0028CBD12A46394651
:10200000204600F0A9FF0028CAD154F83D0B016812
:1020100041F400710160202004F81E09E67766771C
:102020000020C6E7FFE70220C3E70000020010001F
:102030000000FFFF10B586B00021009101910291D0
:10204000039100680F4988421AD10F4CA06940F0F3
:102050000800A061A069694600F008000490C02053
:10206000009012200190032003900848FFF758FCCD
:10207000E06940F40010E061E06900F400100490B1
:1020800006B010BD0054004000100240000C01409A
:102090000248816802781144816070473C0000204A
:1020A000074810B5016841F010010160032000F0FD
:1020B00075F80F2000F006F800F024F8002010BD9D
:1020C0000020024070B50D4D04464FF47A71287817
:1020D000B1FBF0F00A490968B1FBF0F000F0E2FA58
:1020E00048B9102C07D200222146501E00F036F8C5
:1020F00000206C6070BD012070BD00003C0000201D
:10210000480000200C4808B5816941F00101816157
:10211000816901F001010091C16941F08051C16103
:10212000C06900F0805000900448416821F0E061EF
:1021300041F00071416008BD001002400000014004
:10214000002809DB00F01F020121914040098000B6
:1021500000F1E020C0F8001170470000F0B40E4B11
:102160001B680C46C3F30223C3F10705042D00D9F5
:102170000425191D072901D2002300E0DB1E0126DA
:1021800006FA05F1491E214099409E40761E1640F0
:102190003143F0BC01F05ABD0CED00E0064900F0FF
:1021A000070208684FF6FF03184040EA0220034A7E
:1021B00010430860704700000CED00E00000FA05D5
:1021C0002DE9F0470F46050061D0434E306800F01E
:1021D0000700B84209D2306820F007003843306069
:1021E000306800F00700B84251D128683B4C8107A5
:1021F00012D5400703D5606840F4E060606028783D
:10220000000703D5606840F4605060606068A968AA
:1022100020F0F000084360602878C00728D0686884
:10222000012810D02168022810D0890700292EDA51
:10223000616821F0030101436160FFF76BFC804698
:1022400041F288390DE021688903EFE78901EDE764
:10225000FFF760FCA0EB0801494502D90320BDE867
:10226000F0876068696800F00C00B0EB810FEFD177
:10227000306800F00700B8420BD9306820F0070042
:1022800038433060306800F00700B84201D00120C8
:10229000E5E72878400705D56068E96820F4E06044
:1022A000084360602878000706D56068296920F433
:1022B000605040EAC100606000F03EF86168084A82
:1022C000C1F30311515CC840064908600648006824
:1022D000FFF7F8FE0020C2E7002002400010024095
:1022E000AC6400084800002040000020014800685D
:1022F000704700004800002004480549006849680C
:10230000044AC1F30221515CC840704748000020D4
:1023100000100240BC640008044805490068496890
:10232000044AC1F3C221515CC840704748000020F4
:1023300000100240BC6400080E4A51680E4801F0CB
:102340000C03042B11D0082B0FD10C48C1F383438D
:10235000C903C05C0AD55168084AC1F34041921EC6
:10236000515C054A5043B0FBF1F0704704494843C3
:10237000704700000010024000127A009C640008C0
:1023800000093D002DE9F84F040070D02078C04DC1
:10239000C00749D06868C0F38100012807D0686889
:1023A000C0F38100022809D16868C00306D52868F7
:1023B000800339D560680028E7D035E06068B0F563
:1023C000803F0BD010B1B0F5A02F11D0286820F4B9
:1023D00080302860286820F4802002E0286840F4DB
:1023E00080302860606890B1FFF794FB06460AE0F1
:1023F000286840F480202860F0E700BFFFF78AFBE0
:10240000801B642873D828688003F7D50CE0FFF799
:1024100081FB064605E000BFFFF77CFB801B6428BC
:10242000F0D828688003F7D420789A4E80074FF0C0
:1024300001094FF0000839D5686810F00C0F07D07B
:102440006868C0F38100022809D16868C00306D417
:102450002868800714D52069012808D110E0206978
:10246000B0B1C6F80090FFF755FB074605E00AE15A
:10247000FFF750FBC01B0228C4D828688007F7D597
:102480002868616920F0F80040EAC10028600DE08A
:10249000C6F80080FFF73EFB074604E0FFF73AFB73
:1024A000C01B022823D828688007F7D420780007AB
:1024B0002CD57948A169D9B1C0F80090FFF72AFB63
:1024C000074604E0FFF726FBC01B02280FD8686A06
:1024D0008007F7D571484FF4FA510068B0FBF1F06E
:1024E000009000BF0098411E0091FAD20EE080E0FB
:1024F000C0F80080FFF70EFB074604E0FFF70AFB79
:10250000C01B022875D8686A8007F7D42078400776
:1025100060D5E8690027C00008D4E86940F0805021
:10252000E861E869012700F0805000905C4801688C
:10253000C90513D40168834641F480710160FFF737
:10254000E9FA824606E000BFFFF7E4FAA0EB0A00D2
:1025500064284ED8DBF80000C005F5D5E0680128F6
:102560000AD008B1052813D0286A20F0010028629B
:10257000286A20F0040002E0286A40F00100286286
:10258000E06841F2883B98B1FFF7C4FA82460BE05D
:10259000286A40F004002862EEE700BFFFF7BAFAAD
:1025A000A0EB0A0159455AD8286A8007F6D50CE0F5
:1025B000FFF7B0FA824605E0FFF7ACFAA0EB0A019C
:1025C00059454CD8286A8007F6D41FB1E86920F035
:1025D0008050E861E06988B36968C1F3810102292C
:1025E00044D00228C6F8608004D0FFF793FA04466E
:1025F00038E034E0FFF78EFA074604E0FFF78AFA86
:10260000C01B02282BD828688001F7D4206AB0F5B7
:10261000803F05D16868A16820F4003008436860F5
:10262000D4E908010843696821F47411084368601B
:10263000C6F86090FFF76EFA044606E025E000BF9A
:10264000FFF768FA001B022809D828688001F7D52F
:102650001BE000BFFFF75EFA001B022802D903202F
:10266000BDE8F88F28688001F4D40EE00128F7D087
:102670006868226A00F48031914204D1616A00F4F2
:102680007010884201D00120EAE70020E8E700004E
:1026900000100240000042428004424248000020F4
:1026A0000070004010B5401EB0F1807F01D30120C2
:1026B00010BD4FF0E02460610F21601701F0C6FAF1
:1026C0000020A06107202061002010BD70477047E6
:1026D00070B590F83C20012A26D0012480F83C40B7
:1026E000022280F83D2003685A689D6822F0700637
:1026F0000A6832435A600D4B02689A4208D0B2F120
:10270000804F05D00A4B9A4202D00A4B9A4204D11C
:10271000496825F080031943916080F83D4000210D
:1027200080F83C10084670BD022070BD002C0140AE
:10273000000400400008004010B5040003D094F8E5
:102740003D0010B107E0012010BD002084F83C00DE
:10275000204600F01FF8022084F83D00211D20686B
:1027600001F032F9012084F8460084F83E0084F834
:102770003F0084F8400084F8410084F8420084F867
:10278000430084F8440084F8450084F83D000020AC
:1027900010BD000008B5154A0168154891420ED1D8
:1027A000816941F4006181618069002200F4006068
:1027B000009001211920FFF7D1FC192010E0B1F1A0
:1027C000804F11D1C16941F00101C161C06900228E
:1027D00000F00100009011461C20FFF7BFFC1C20F8
:1027E000BDE80840FFF7ACBC08BD0000002C01406C
:1027F0000010024090F83D10012901D001207047DF
:10280000022180F83D100168CA6842F00102CA60E6
:1028100000680B49884208D0B0F1804F05D00949C3
:10282000884202D00849884204D1816801F007013A
:10283000062903D0016841F00101016000207047C2
:10284000002C0140000400400008004070B5044620
:1028500090F83C000025012817D0012684F83C6040
:10286000022084F83D002068826822F0770222F47A
:102870007F4282600868502838D00DDC20284FD075
:1028800005DC90B3102811D14AE0022070BD302839
:1028900046D040280AD13BE060282FD070280DD0C8
:1028A000B0F5805F03D0B0F5005F12D0012584F849
:1028B0003D60002084F83C00284670BDCB68D1E91B
:1028C0000121206801F0BCF82068816841F077019F
:1028D00009E0CB68D1E90121206801F0B1F8206856
:1028E000816841F480418160E1E719E0CA68496884
:1028F000206801F0B7F85021206806E0CA684968EE
:10290000206801F0C0F86021206801F0A3F8CEE74C
:10291000CA684968206801F0A5F840212068F4E7FA
:10292000226801461046F0E770472DE9F041044661
:102930000068C66805694FF00007A90713D5B107FD
:1029400011D5F91E01610120207720688069800778
:10295000204602D0FFF7E8FF04E000F07EF82046B2
:1029600000F07CF82777680716D5700714D5216822
:102970006FF004000861022020772068806910F45D
:10298000407F204602D0FFF7CFFF04E000F065F85B
:10299000204600F063F82777280715D5300713D5B0
:1029A00021686FF008000861042020772068C06962
:1029B0008007204602D0FFF7B7FF04E000F04DF893
:1029C000204600F04BF82777E80616D5F00614D518
:1029D00021686FF010000861082020772068C06926
:1029E00010F4407F204602D0FFF79EFF04E000F085
:1029F00034F8204600F032F82777E80708D0F007CF
:102A000006D021686FF001000861204600F028F828
:102A1000280608D5300606D521686FF080000861C9
:102A20002046FFF753FE680608D5700606D52168D4
:102A30006FF040000861204600F04AF8A8060AD569
:102A4000B00608D521686FF0200008612046BDE877
:102A5000F041FFF73CBEBDE8F081704770470000D1
:102A600070B50646006815490025154C884209D105
:102A7000A0681449401CA0600968884202DBA56078
:102A800001F0FCF83068B0F1804F08D160680E4961
:102A9000401C606009680D4A914201DD656070BDAF
:102AA000B0F5967F01D101F0E9F86068B0F5167FC6
:102AB000F5DB01206560207070BD0000002C014036
:102AC00014000020040000200C0000200000F04151
:102AD000704770B5040004D094F84100002510B18F
:102AE00006E0012070BD84F84050204600F024F834
:102AF000242084F841002068C16821F40051C1609D
:102B0000204600F0F9FF2068016921F4904101613D
:102B10002068416921F02A0141612068C16841F4BF
:102B20000051C1606564202084F8410084F84200AF
:102B30006563002070BD000070B586B0002400946D
:102B4000019402940394234E036823490220032234
:102B5000224DB34219D18B6943F480438B618B6959
:102B600003F4804304938B6943F004038B61896908
:102B7000039201F0040104910102CDE900106946BD
:102B80002846FEF7CDFE28151BE0154EB3421FD197
:102B9000CB6943F40033CB61CB6903F40033049376
:102BA0008B6943F004038B618969039201F004018E
:102BB00004910421CDE9001069462846FEF7B0FED5
:102BC0000820CDE90004694628460294FEF7A8FED5
:102BD00006B070BD003801400010024000080140FE
:102BE000004400402DE9F843044690F8410098461F
:102BF00016460D46202802D00220BDE8F88385B194
:102C00007EB100206064212084F84100FEF782FF3D
:102C1000A6848146E684A0682027B0F5805F02D0B4
:102C200003E00120E9E7206910B12E4600250EE0FF
:102C300000260CE08021204600F0BAFFA8B9C6B1FA
:102C400016F8010B21684860E08C401EE084E08C9F
:102C50004B464FF00002CDF800800028EAD14FF03B
:102C60004001204600F0A4FF40B184F841700320E9
:102C7000C3E735F8020BC0F30800E3E784F84170BE
:102C80000020BAE710B5044600F058F82169401A50
:102C900001F01EFC6169BDE8104001F057BB30B483
:102CA0000C46029D0160828011468360858100226E
:102CB00002614FF07E524261204630BC0022FEF796
:102CC00024BF10B581898068FEF71AFF08B1002083
:102CD00010BD012010BD70B504462046FFF7F1FF7E
:102CE0000028FAD000252E46A18801222068FEF790
:102CF0000CFF6D00A189A068FEF702FF00B16D1CFA
:102D0000A18800222068FEF700FF761CF6B2182E7C
:102D1000EAD30026A18801222068FEF7F6FEA188EA
:102D200000222068FEF7F1FE761C16F0FF06F1D0B7
:102D3000280201D545F07F45284670BD2DE9F041B8
:102D400000250F4680462C462E4609E04046FFF7F8
:102D5000C2FF01464D1906F1010644EBE074F6B2DC
:102D6000BE42F3D33A46002328462146FDF73CFAFB
:102D7000BDE8F0814161704710B50446FFF7DEFF02
:102D8000206110BDFEE701684A69D24352050FD4A5
:102D90006FF480624A61002140F8301F20224273A4
:102DA0008173026942F004020261017301207047DD
:102DB000002070472DE9F84F0446006889460B9DB6
:102DC00001689846174641F48061016020680168F7
:102DD00041F48071016000954FF0011B00225946BB
:102DE00020460A9B00F0E4F84FF4007A40B12068D6
:102DF0000068C00501D5C4F840A00320BDE8F88FE5
:102E0000216809F0FE0008612B46284920460A9AED
:102E100000F016F9F0BB20684169806900902A46ED
:102E200020460A9900F0A2F940B1206C04283AD15A
:102E30002068016841F40071016034E0FEB2B8F12D
:102E4000010F09D02168380A08612A4620460A99EC
:102E500000F08CF90028E8D1206806612A46204657
:102E60000A9900F083F90028DFD12068016841F455
:102E70008071016000950022594620460A9B00F0AF
:102E800097F80028B3D1216809F0FF0040F0010055
:102E9000086100E007E02B46044920460A9A00F04A
:102EA000CFF80028AAD00120A8E700000200010006
:102EB0002DE9F843044600680D46DDE908970168EE
:102EC0009846164641F4807101604B4600224FF04F
:102ED00001112046009700F06BF848B120680068A7
:102EE000C00502D54FF4007020640320BDE8F883CC
:102EF000216805F0FE0008613B464A461549204618
:102F000000F09EF888B920684169806900903A46CF
:102F10004946204600F02AF948B1206C042804D123
:102F20002068016841F4007101600120DEE7F5B21C
:102F3000B8F1010F09D02168300A08613A464946C4
:102F4000204600F013F90028E7D120680561002031
:102F5000CCE700000200010070B516460D4604469D
:102F60001EE02046FFF70FFF08B1012070BD681C6E
:102F700016D0FEF7CFFD801BA84200D885B9206887
:102F80004069C04340070BD5002044F8300F202192
:102F90006173A073216941F0200121612073E4E78E
:102FA00020684069C0434007DBD4002070BD0000AA
:102FB0002DE9F047984617460D460446C1F30746EB
:102FC000DDF820902AE000BFB8F1FF3F26D0FEF7E1
:102FD000A1FDA0EB0901414502D8B8F1000F1DD1B8
:102FE0002068012E16D0806925EA00000004000C3C
:102FF00012D00020B84211D1002044F8300F202117
:103000006173A073216941F02001216120730120C7
:10301000BDE8F0874069E7E70120EBE72068012E73
:103020000AD0806925EA00000004000C06D00020C8
:10303000B842C9D00020EBE74069F3E70120F7E789
:103040002DE9F047984616460D4604464FF0000914
:103050004FF0200AC1F3074723E020684069C043CE
:10306000400515D42068016841F4007101602168B1
:103070006FF480604861C4F8309084F83DA084F813
:103080003E90216C41F00401216484F83C9021E0E1
:10309000701C06D0FEF73EFDA0EB0800B04203D83E
:1030A00016B1012F1FD021E02068012F15D08069B3
:1030B00025EA00000004000C18D000BF44F8309F3F
:1030C00084F80DA084F80E90216941F0200121615F
:1030D00084F80C900120BDE8F087406925EA0000E3
:1030E0000004000CEAD12068406901E02068806992
:1030F00025EA00000004000CAFD1ECE72DE9F04117
:10310000002590460E460446202728E04069C0432B
:10311000C0060CD454F8301B6FF01000486144F81E
:1031200010596777A577206A2062257714E0FEF7AB
:10313000F1FCA0EB0800B04200D886B920684069D5
:10314000C04340060BD544F8305F6773A573206910
:1031500040F02000206125730120BDE8F081206847
:103160004169C9434906D1D40020F6E770B5164637
:103170000D4604461EE02046FFF705FE08B101207B
:1031800070BD681C16D0FEF7C5FC801BA84200D895
:1031900085B920684069C04300060BD5002044F87B
:1031A000300F20216173A073216941F0200121615A
:1031B0002073E4E720684069C0430006DBD40020A8
:1031C00070BD38B50446C4E90012038100F04FF821
:1031D0002820FEF773FB6A46FF21204600F03AF8EC
:1031E000E0B99DF80000112818D1032206212046DD
:1031F00000F041F890B96C220721204600F03BF81E
:1032000060B9FF220921204600F035F830B9B0221C
:103210000121204600F02FF8002800D0012038BD01
:10322000FEB515460E460446642204210A308DE898
:10323000070001230522AE212068FEF735FD08B105
:103240000120FEBD608940BA3080A08940BA288044
:103250000020FEBD3EB50124CDE900246423029385
:103260000A4600682346AE21FEF71EFD3EBD402201
:103270000621AFF3008017B583B06424012305AAAB
:103280008DE81C000A460068AE21FEF73BFE06B042
:1032900010BD00002DE9F04786B000253E4800959E
:1032A000019502950395816941F010018161816961
:1032B00001F010010491816941F02001816181696F
:1032C00001F020010491816941F00401816181696B
:1032D00001F004010491816941F008018161806974
:1032E000DFF8B88000F008004FF460440490012239
:1032F00021464046FEF709FCDFF8A4900122132185
:103300004846FEF702FCDFF89CA04FF40477012248
:1033100039465046FEF7F9FB009401240326CDE917
:103320000246694640460194FEF7FAFA1320CDE9B9
:103330000004CDE9024669464846FEF7F1FA4FF42B
:10334000E04000901848CDE9010469465046FEF778
:10335000E7FA0820CDE90005694602945046FEF7D9
:10336000DFFACDE90074CDE9024669465046FEF722
:10337000D7FA2020CDE90005694650460295FEF7B0
:10338000CFFA002211462820FEF7E8FE2820FEF79B
:10339000D7FE06B0BDE8F0870010024000100140E3
:1033A00000080140000C0140000021100D4810B53C
:1033B0000B4901600C49416000214FF4804281605B
:1033C000C0E9031241618161C1610162FEF7A8FB9E
:1033D000002803D0BDE81040FEF73EBA10BD000043
:1033E00000540040DC080020A086010010B586B023
:1033F00000241948009401940294039404941549FC
:103400000594016041F61F41C0E9011442F20F71B9
:10341000C0E903148021C0E90541FFF78DF908B127
:10342000FEF71AFA4FF48050009069460A48FFF7F9
:103430000DFA08B1FEF710FA049404A906480594A1
:10344000FFF746F908B1FEF707FA0348FFF7D2F98C
:1034500006B010BD002C01403009002010B586B028
:1034600000241848009401940294039404944FF0AB
:1034700080410594016041F61F41C0E9011442F208
:103480000F71C0E9031480218161FFF755F908B17C
:10349000FEF7E2F94FF48050009069460948FFF7C3
:1034A000D5F908B1FEF7D8F9049404A905480594A4
:1034B000FFF70EF908B1FEF7CFF90248FFF79AF9C6
:1034C00006B010BD780900200C4810B50A4901600B
:1034D0004FF4E1314160002181600C22C160C0E9FC
:1034E00004128161C161FFF7F4FA002803D0BDE83E
:1034F0001040FEF7B1B910BD00380140C0090020EE
:103500000C4810B50A4901604FF4E13141600021D7
:1035100081600C22C160C0E904128161C161FFF7C2
:10352000D8FA002803D0BDE81040FEF795B910BDC9
:1035300000440040080A0020FEE7FEE730B4002106
:10354000084B0A465FF0000003EBC004401CC0B209
:1035500062548028F8D3491CC9B20829F2D330BC80
:1035600000F0C2B84C00002030B1012807D1002182
:103570005FF0A70000F06EB90021A620FAE77047BF
:1035800010B558B1012810D10021C02000F062F917
:103590000021A020BDE8104000F05CB90021C82047
:1035A00000F058F90021A120F4E710BD30B5CC0897
:1035B00001F0070301259D40EBB2064D05EBC00568
:1035C000C808285C0AB1184302E063EA0000C0435F
:1035D000285530BD4C00002070B5424D4FF40044DA
:1035E000002221462846FEF790FAC820FEF766F929
:1035F000012221462846FEF788FA0021AE2000F07D
:1036000029F90021084600F025F90021102000F0DA
:1036100021F90021402000F01DF90021812000F057
:1036200019F90021CF2000F015F90021A12000F0A8
:1036300011F90021C82000F00DF90021A62000F0AA
:1036400009F90021A82000F005F900213F2000F031
:1036500001F90021D32000F0FDF80021084600F018
:10366000F9F80021D52000F0F5F80021802000F0C5
:10367000F1F80021D92000F0EDF80021F12000F050
:10368000E9F80021DA2000F0E5F80021122000F02E
:10369000E1F80021DB2000F0DDF80021402000F0FF
:1036A000D9F80021202000F0D5F80021022000F0F8
:1036B000D1F800218D2000F0CDF80021142000F079
:1036C000C9F80021A42000F0C5F80021A62000F0D0
:1036D000C1F8FFF733FFBDE870400021AF2000F0D4
:1036E000B9B800000010014070B5114E002400BFB1
:1036F00004F1B000C0B2002100F0ACF8002108468F
:1037000000F0A8F80021102000F0A4F85FF00005F8
:1037100006EBC5000121005D00F09CF86D1CEDB2C8
:10372000802DF5D3641CE4B2082CE1D370BD0000F9
:103730004C0000202DE9FC4F1C460E4682468B466D
:103740000190082B0DD0600700D0012000EBD400C1
:1037500061084843C0B28146203AD0B200900020B0
:103760004BE00620F7E7082C13D00C2C18D0102CB7
:103770001BD0182C44D10098234900EBC00000BF97
:1037800001EB8001002711F80850E80712D00B9ACE
:1037900013E000981D4900EB400001EB4001F1E708
:1037A00000981B4900EB4000EAE71A49009801EB3A
:1037B0000011E7E70B9828B3002231465046FFF787
:1037C000F5FE761C7F1C6D08FFB2F6B2082FDCD325
:1037D0000AF1010000F0FF0A082C0AD00199AAEBB7
:1037E0000100B0EB540F04D10BF108008A4600F041
:1037F000FF0B08F101005E46C0B280464845B2D3D7
:10380000BDE8FC8F0122D8E7165300088A4600085D
:10381000B2480008264D00082DE9F8411E4615461D
:1038200088460446079F0BE03346414620460097F2
:10383000FFF780FF082E0AD004EB5600C4B26D1CBF
:103840002A78A2F120005E28EED9BDE8F881A41DF7
:10385000E4B2F4E72DE9F0471D4C054609B1012219
:1038600000E0002201212046FEF74FF9002202214C
:10387000A0462046FEF749F9164F00244FF4804930
:103880004FF40056002231463846FEF73EF928062E
:1038900001D5012200E0002249463846FEF735F9FD
:1038A000012231463846FEF730F96806641C050EE1
:1038B000E4B2082CE6D30122022144464046FEF73A
:1038C00024F92046BDE8F04701221146FEF71DB954
:1038D00000080140001001407047704700B585B0F6
:1038E0000020019003900948816941F0080181613D
:1038F0008069694600F008000490102000900120C3
:1039000002900348FEF70CF805B000BD001002401D
:10391000000801400B4800B5816985B041F00801FD
:1039200081618069694600F00800049010200090D1
:10393000012001900290022003900348FDF7F0FF60
:1039400005B000BD0010024000080140FEF7A0BB1A
:1039500030B58FB028216846FCF77EFD14210AA8F7
:10396000FCF77AFD01210804CDE90010002402943F
:1039700002250491CDE907504FF4E0100990684604
:10398000FEF700FD08B172B6FEE70F20CDE90A058B
:103990004FF48060CDE90C4002210AA80E94FEF796
:1039A0000FFC002801D072B6FEE70FB030BD7047A3
:1039B0000148FEF7BABF0000300900200148FEF7B9
:1039C000B4BF000078090020F0B50268194B1A4C0A
:1039D0001A4D4FF08047984205D0B84203D0A0421C
:1039E00001D0A84203D122F070064A6832439842BF
:1039F00005D0B84203D0A04201D0A84203D122F49E
:103A00004074CA6822434C6922F08002224302605B
:103A10008A68C2620A688262984201D109690163B8
:103A2000012141610169C90703D0016921F0010148
:103A30000161F0BD002C014000040040000800407E
:103A400010B5846842EA032224F47F440A432243E7
:103A5000826010BD826822F070020A4342F00701C2
:103A60008160704710B5036A046A24F0010404629F
:103A7000846924F0F00444EA021423F00A020A43A1
:103A80008461026210BD10B5036A046A24F0100458
:103A90000462846923F0A00324F4704444EA0232EF
:103AA00043EA01118261016210BD01680C3151E8E5
:103AB000002F22F4907241E80023002BF5D1016819
:103AC000143151E8002F22F0010241E80023002BBD
:103AD000F5D1016B012909D101680C3151E8002FA2
:103AE00022F0100241E80023002BF5D1202180F8BC
:103AF000421000210163704770B5044600680169F7
:103B0000E26821F44051114301612169A068084332
:103B1000616908432168CA6841F20C639A43024311
:103B2000CA6020684169A26921F440711143416172
:103B30001E492068884202D1FEF7EEFB01E0FEF745
:103B4000DBFB00EBC00101EB001260686421800028
:103B5000B2FBF0F3B3FBF1F36FF018067343B2FB63
:103B6000F0F5B2FBF0F605EB8305322303EB051508
:103B7000B5FBF1F5B6FBF1F605F0F00505EB061522
:103B8000B2FBF0F6B2FBF0F0B0FBF1F06FF0180210
:103B9000504306EB800003EB0010B0FBF1F021680E
:103BA00000F00F002844886070BD0000003801401C
:103BB0002DE9F843984617460D460446089E24E032
:103BC000701C22D0FDF7A6FFA0EB0800B0421AD867
:103BD000CEB12068C168490717D5802D15D0402D7A
:103BE00013D00168C94309070FD401680025406854
:103BF00000902046FFF759FF0820606484F8405089
:103C00000120BDE8F8830320FBE72068006835EA5F
:103C1000000004D00020B842D2D00020F1E70120FB
:103C2000F9E7FEE7490050EAC12018BF04204A0D19
:103C300018BF40F0010040F2FF72B2EB515F08BFC5
:103C400040F00200012808BF052070470907090E4F
:103C5000002804DB00F1E02080F80014704700F039
:103C60000F0000F1E02080F8141D704730380A285A
:103C700001D2012070470020704700004FF6FF730B
:103C80000D2202490248FEF7ADBF000020000020CF
:103C9000080A00202DE9F0414FF0E0240546A7690D
:103CA000FDF738FF064605EBC500C500BD420BD940
:103CB000FDF730FFB042FBD00849781B0844A169EA
:103CC0008142FCD8BDE8F0817D1BA069A842F9D9EA
:103CD000FDF720FFB042F8D0F4E7000040190100E2
:103CE00086B0FEF7DDF9FFF733FEFFF7D3FAFFF7F3
:103CF0005DFBFFF7E9FBFFF703FCFFF777FBFFF73F
:103D0000ADFBFFF769FC0020FFF72EFC0020FFF75A
:103D100037FCFFF713FC594C082023460090102273
:103D200019465748FEF7BBFF0A215548FFF724F80C
:103D300054495348FFF71EF8FDF704FD202322469F
:103D400051495248FFF73DFA012540B100210823AF
:103D50004FA208460095FFF75FFDFFF7C5FCDFF8AF
:103D60002CB14D4CDFF83481DFF834914FF4FA7AFE
:103D7000002700BFBBF80810DBF80400FDF7C0FE09
:103D80000028F7D171E02278052104A800F0A0F8FE
:103D90003E492268103121F81200521C514622601F
:103DA0008A4262D339481030FDF7BCFBC6B23246B6
:103DB0003CA101A82760FCF73BFA0021082301AAD7
:103DC00008460095FFF728FDFFF78EFCA0688642A5
:103DD00005DDC82E03D200F0C5F900F0E3F8FDF7C9
:103DE0003DFDE06000F086FA02460B4631A101A8D5
:103DF000FCF71EFA082301AA0A2100200095FFF70C
:103E00000BFDFFF771FCFDF72FFC0A211C48FEF7A4
:103E100039FF0646B0F5000F15DB00F06BFA0246DD
:103E20000B4627A101A8FCF703FA082301AA2821C1
:103E300000200095FFF7F0FCFFF756FC2348864270
:103E400001DAFFF71BFF98F8001019B188F800702D
:103E500000F05AF899F80010022906D1032189F8D8
:103E60000010FFF76BFB00F0F1F805AA04A9074862
:103E7000FFF7D6F9002884D185E70000000C014047
:103E8000C408002000007A44DC080020CC04002094
:103E900068656C6C6F0000000000002014000020BA
:103EA0001000002048523A20253033642062706DA3
:103EB0000D0A000074656D703A252E326600000010
:103EC0004845494748543A252E32660000002041B3
:103ED000F0B500254B4203EBD3732C4643F3470365
:103EE0004FF4FA7709E0D618BE4204D230F81660D3
:103EF000641C3544E4B25B1C5BB2B3EB510FF2DDE2
:103F0000B5FBF4F080B2F0BD38B51A208DF8000092
:103F10004FF6FF7423460B2212A11548FEF762FEEE
:103F20004FF47A752846FDF7C9FC23461A2211A1E1
:103F30000F48FEF757FE2846FDF7C0FC23460F2228
:103F400013A10B48FEF74EFE2846FDF7B7FC2346AB
:103F5000012269460648FEF745FE2846FDF7AEFCFD
:103F600038BD000041542B434D47463D310D0A00FA
:103F7000C009002041542B434D47533D222B383676
:103F80003138323839393731363030220D0A0000B5
:103F900074616B6520206D65646963696E650D0AE7
:103FA0000000000038B51A208DF800004FF6FF74AD
:103FB00023460B2212A11548FEF714FE4FF47A7522
:103FC0002846FDF77BFC23461A2211A10F48FEF775
:103FD00009FE2846FDF772FC23461D2213A10B485B
:103FE000FEF700FE2846FDF769FC234601226946DC
:103FF0000648FEF7F7FD2846FDF760FC38BD0000D7
:1040000041542B434D47463D310D0A00C009002065
:1040100041542B434D47533D222B383631383238EB
:1040200039393731363030220D0A000061626E6F47
:10403000726D616C697469657320696E2068656171
:10404000727420726174650D0A0000002DE9F04160
:1040500000243B4D3B4E8CB003274FF496783AA199
:1040600001A86A68FCF7E4F83AA106A8AA68FCF778
:10407000DFF80CB1012000E00020002100900823AF
:1040800001AA0846FFF7C8FB012C01D0012000E07F
:1040900000200090082306AA0A210020FFF7BCFB9D
:1040A000022C01D0012000E00020009008232BA268
:1040B00014210020FFF7B0FBFFF716FB3078A8B9FA
:1040C00037704046FDF7FAFB14B1012C0ED106E023
:1040D0006868401E686009D55A20686006E0A868D4
:1040E000401EA860282801DA9620A86030780128B0
:1040F0001AD137704046FDF7E1FB34B1012C0CD0EA
:10410000022C11D10CB0BDE8F0816868401C6860D9
:104110005A2809DD0020686006E0A868401CA860F5
:10412000962801DD2820A8603078022897D13770C2
:104130004046FDF7C3FB641C022C90DD00248EE793
:10414000000000201000002054696D65723A25308F
:104150003264000048523A25303364004261636B98
:10416000000000004FF6FF730D2202490248FEF7DF
:1041700039BD00002D000020080A002010B50029DC
:104180000AD00878002807D005487844FCF7BAFD23
:10419000002801D0002010BD0248784410BD000066
:1041A00002240000FA23000021F00042A2F1605234
:1041B000B2F5801F01F0004328BFD2F17F6C0BD90C
:1041C0005FEA001C43EAC20242EB507018BF70471E
:1041D00028BF20F001007047B2F5801FBCBF184611
:1041E00070474FEA410C1CF5001F02D2084600F050
:1041F000CDB970B500F029F800000089FFF7F6BFCF
:104200004FF00040A0F580007047000002494FF0D9
:10421000000000F0C2B900BF0000F87F10F00042BB
:1042200048BF4042B0FA80F310FA03F10AD0C3F15C
:104230001D0303F580634FEA415002EB035202EB8A
:10424000D12170474FF0000070470EF1020E2EF0A2
:10425000030E5EF8046B364205D4012A43EB0305D6
:1042600015F5001F12D8012841EB010C1CF5001FA9
:104270000CD80ED14FEAD17C15F5001F0CEB4C0C7D
:104280000CF1020C08BF4CEBD37C04E04FF0080C9F
:1042900001E04FEAD37C0CEB4C0526FA05F606F05C
:1042A0000706B6F1040C06D20EEB860CBDE8704092
:1042B0004CF0010C6047DFE80CF0090B02024FF0F4
:1042C00000414FF00000A1F5002170BD19461046D5
:1042D000012851EB010418BFD4F5001484BF00205D
:1042E00001F0004170BD0808A0F500114FEA31014E
:1042F0007047000043004FEAD30C4FEA3C0C4340A8
:104300001FBF40070CF1605113F0FE4F70471CF0C7
:10431000006F03D100200CF0004170470CF0004307
:1043200043EA507010B540EACC0000F0E9F800BF55
:10433000000000924FEA0001FFF7D5BF4FF00041A7
:104340004FF00000A1F50021704700004FF47F0CF2
:104350001CEAD0121EBF1CEAD11392EA0C0F93EA9A
:104360000C0F00F0858090EA010F48BF42F4807284
:1043700040F4000C41F400002CF07F4120F07F401D
:1043800000B58142A2EB03020FF2081CACEB504EC9
:10439000C0F100009EF800E04FEA4E0E00FB0EFC5C
:1043A00038BF49004FEA2C1C02F5FA020CFB0EF351
:1043B0004FEACE1E4FEA112C4FEAC1210EEB635E8D
:1043C00042EB22420EFB0CFC4FEA1C5300FB031194
:1043D0004FEA112C4FEA01310EFB0CFC4FEADC4C8A
:1043E00000FB0C11C14228BF09184CEB03335DF8E8
:1043F00004EB10EB410143EBC250B2F57C0F38BF28
:10440000704729D512F0F00F1CBF00F1C04000F03A
:1044100000407047008182838485868788898B8CE1
:104420008D8E8F919293959697999A9C9D9FA0A21D
:10443000A3A5A7A8AAACAEB0B2B3B5B7B9BCBEC06D
:10444000C2C5C7C9CCCED1D4D7D9DCDFE2E6E9EC0E
:10445000F0F3F7FAFE0000004FEA400C0CF1807C0C
:10446000BCF17E4F28BF7047B0F1C04000F08EB85D
:1044700090EA010F0CEAD11348BF42F48072624502
:1044800038BF634507D213F47F0F16D080EA0100CE
:1044900000F00040704710B500F032F8097EFC3E95
:1044A00000F005B880EA010000F00040704780EAA3
:1044B000010000F0004000F069B812F47F0F04BF63
:1044C0000248704780EA010000F060B80000C07F39
:1044D00010F0004148BF4042B0FA80F310FA03F2F6
:1044E000C3F19D030BD051EAC35101EB12205306D7
:1044F00038BF704700F1010008BF20F0010070478D
:104500000EF1020E2EF0030E5EF8044B244204D48A
:104510004FEA4102B2F17F4F11D84FEA4003B3F1A5
:104520007F4F0CD80ED14FEAD07CB2F17F4F0CEB0D
:104530004C0C0CF1020C08BF4CEBD17C04E04FF0AA
:10454000080C01E04FEAD17C0CEB4C0324FA03F495
:1045500004F00704B4F1040C06D20EEB840CBDE8A1
:1045600010404CF0010C6047DFE80CF00708020235
:104570004FF00040A0F5800010BD0846420018BF73
:10458000D2F1807288BF00F0004010BDFF2141EAE7
:10459000D050C0057047FCF732B90CF00F03092B5F
:1045A00008BF082000F059800A2B0BD0082B18BF39
:1045B000704708BF1CF0400F0AD04FF000004FF0CA
:1045C000000170471CF0400F18BF4FF000407047CB
:1045D0001CF0100F08D020F0704300F07F4242EA38
:1045E000D3014FEA4370704700F0604021F07F42F2
:1045F00042EA000201F07F4040EA727070474FF0DB
:10460000FF0C4CF4E06C1CEA11531CBF9CEA030C39
:104610009445C2BFDA4201EB02517047002B0DD026
:10462000BCF1000F0FD0002A01F00041A4BF41F0FF
:10463000E04141F07F614FF00000704701F0004120
:104640004FF00000704750EA01334FF09B0C18BF49
:104650004CF0806C7FF4DAAD70471CF4801F11D0F1
:104660001CF4E02F03D06FEACC31490070474FF0C3
:104670004050EFF3008222F0704242EA000282F3DF
:10468000008870474FF000007047000000000000F5
:104690000000002F000000000700070000147F1436
:1046A0007F1400242A7F2A12006264081323003634
:1046B0004955225000000503000000001C22410063
:1046C000000041221C000014083E08140008083EA7
:1046D0000808000000A060000008080808080000A2
:1046E00060600000002010080402003E5149453E71
:1046F0000000427F4000004261514946002141458F
:104700004B31001814127F10002745454539003CF5
:104710004A494930000171090503003649494936C3
:1047200000064949291E00003636000000005636B2
:104730000000000814224100001414141414000096
:104740004122140800020151090600324959513E24
:10475000007C1211127C007F49494936003E4141DC
:104760004122007F4141221C007F49494941007F8D
:1047700009090901003E4149497A007F0808087F7C
:104780000000417F4100002040413F01007F0814AC
:104790002241007F40404040007F020C027F007FAA
:1047A0000408107F003E4141413E007F090909068F
:1047B000003E4151215E007F0919294600464949C2
:1047C00049310001017F0101003F4040403F001F8F
:1047D0002040201F003F4038403F0063140814630E
:1047E00000070870080700615149454300007F41F8
:1047F000410000552A552A55000041417F00000420
:104800000201020400404040404000000102040058
:10481000002054545478007F4844443800384444BD
:10482000442000384444487F003854545418000849
:104830007E0901020018A4A4A47C007F0804047867
:104840000000447D4000004080847D00007F1028EF
:1048500044000000417F4000007C04180478007C84
:104860000804047800384444443800FC2424241804
:104870000018242418FC007C080404080048545440
:10488000542000043F444020003C4040207C001C59
:104890002040201C003C4030403C0044281028446C
:1048A000001CA0A0A07C004464544C4414141414B4
:1048B00014140000000000000000000000000000D0
:1048C000FC000000000002000000000C020C0200CE
:1048D00000000000000090D0BCD0BC90000300039A
:1048E00000001824FE448C00030207020100182473
:1048F000D8B04C80000300010201C038E438E00069
:10490000010202010202080600000000000000008F
:104910000000000000F80402000000010204000290
:1049200004F800000004020100009060F8609000AC
:104930000000010000002020FC20200000000100F9
:104940000000000000000000080600000000202019
:1049500020202000000000000000000000000000F7
:104960000002000000000080601C02000403000040
:104970000000F8040404F80001020202010000082B
:10498000FC00000000020302000018844424180008
:1049900003020202020008042424D80001020202D9
:1049A000010040B088FC80000000000302003C24AD
:1049B0002424C400010202020100F824242CC000B7
:1049C0000102020201000C04E41C040000000300C8
:1049D0000000D8242424D800010202020100384437
:1049E0004444F8000003020201000000100000002F
:1049F000000002000000000020000000000006008F
:104A00000000002050880402000000000102909085
:104A100090909000000000000000000204885020E8
:104A20000002010000001804C42418000000020065
:104A30000000F804E494F80001020202020000E021
:104A40009CF0800002030000030204FC2424D80030
:104A5000020302020100F80404040C000102020235
:104A6000010004FC0404F80002030202010004FC3B
:104A700024740C0002030202030004FC24740C00E2
:104A8000020302000000F0080444CC4000010202CE
:104A9000010004FC2020FC040203000003020404C3
:104AA000FC040400020203020200000404FC0404EB
:104AB00006040403000004FC24D00C0402030200DA
:104AC000030204FC04000000020302020203FC3C97
:104AD000C03CFC0003000300030004FC30C4FC04E1
:104AE000020302000300F8040404F80001020202B9
:104AF000010004FC24241800020302000000F884D2
:104B00008404F80001020207050004FC24649800F4
:104B1000020302000302182424448C000302020250
:104B200001000C04FC040C0000020302000004FC61
:104B30000000FC04000102020100047C80E01C046F
:104B40000000030000001CE03CE01C000003000328
:104B50000000049C609C0400020300030200041C8B
:104B6000E01C04000002030200000C84641C04002A
:104B70000203020203000000FE020200000007041C
:104B80000400000E30C0000000000001020000021E
:104B900002FE0000000404070000000402040000FC
:104BA00000000000000000000000000008080808E5
:104BB00008080000020000000000000000000040A3
:104BC000A0A0C00000010202030204FC2020C000DB
:104BD00000030202010000C0202060000001020268
:104BE000020000C02024FC0000010202030200C0F9
:104BF000A0A0C0000001020202000020F82424044A
:104C00000002030202000040A0A0602000070A0A80
:104C10000A0404FC2020C00002030200030200205A
:104C2000E4000000000203020000000020E4000095
:104C300008080807000004FC80E0202002030200AE
:104C400003020404FC000000020203020200E02050
:104C5000E020C00003000300030020E02020C0008B
:104C600002030200030200C02020C0000001020273
:104C7000010020E02020C000080F0A02010000C04F
:104C80002020E0000001020A0F0820E04020200060
:104C90000203020000000060A0A020000002020247
:104CA00003000020F820000000000102020020E0C4
:104CB0000020E00000010202030220E020806020CA
:104CC0000000030100006080E0806000000300033A
:104CD000000020608060200002030003020020E04A
:104CE000208060200808070100000020A06020004C
:104CF000000203020200000020DE020000000007A4
:104D00000400000000FF00000000000F000000028F
:104D1000DE2000000004070000000201020404027B
:104D20000000000000000000000000000000000083
:104D3000000000000000000000F80000000000007B
:104D400000333000000000100C06100C06000000BC
:104D500000000000000040C07840C0784000043FE0
:104D600004043F040400007088FC083000000018B0
:104D700020FF211E0000F008F000E01800000021D4
:104D80001C031E211E0000F00888700000001E2178
:104D900023241927211010160E0000000000000027
:104DA000000000000000000000E018040200000005
:104DB00000071820400000020418E0000000004036
:104DC000201807000000404080F0804040000202B0
:104DD000010F01020200000000F0000000000101CC
:104DE000011F01010100000000000000000080B070
:104DF0007000000000000000000000000000000142
:104E0000010101010101000000000000000000306C
:104E10003000000000000000000080601804006006
:104E200018060100000000E010080810E000000F64
:104E3000102020100F00001010F8000000000020CB
:104E4000203F202000000070080808887000003013
:104E500028242221300000300888884830000018BB
:104E6000202020110E000000C02010F800000007D4
:104E70000424243F240000F808888808080000194A
:104E8000212020110E0000E0108888180000000F7B
:104E9000112020110E0000380808C8380800000052
:104EA000003F000000000070880808887000001CA7
:104EB000222121221C0000E010080810E000000060
:104EC000312222110F00000000C0C00000000000CD
:104ED00000303000000000000080000000000000F2
:104EE00080600000000000008040201008000001E9
:104EF00002040810200040404040404040000404AC
:104F00000404040404000008102040800000002075
:104F1000100804020100007048080808F0000000B2
:104F2000003036010000C030C828E810E000071843
:104F3000272423140B000000C038E0000000203CB0
:104F400023020227382008F8888888700000203F54
:104F5000202020110E00C03008080808380007186B
:104F600020202010080008F808080810E000203F62
:104F7000202020100F0008F88888E8081000203F43
:104F800020202320180008F88888E8081000203F17
:104F9000200003000000C03008080838000007188F
:104FA0002020221E020008F808000008F808203F10
:104FB000210101213F20000808F808080000002016
:104FC000203F2020000000000808F8080800C080EA
:104FD00080807F00000008F888C028180800203F63
:104FE00020012638200008F8080000000000203FBB
:104FF00020202020300008F8F800F8F80800203FB2
:10500000003F003F200008F830C00008F808203FAB
:10501000200007183F00E01008080810E0000F10FB
:10502000202020100F0008F808080808F000203F92
:10503000210101010000E01008080810E0000F182D
:10504000242438504F0008F8888888887000203F52
:105050002000030C30200070880808083800003851
:10506000202121221C00180808F808081800000058
:10507000203F2000000008F808000008F808001F82
:10508000202020201F000878880000C83808000071
:1050900007380E010000F80800F80008F800033C8B
:1050A0000700073C03000818688080681808203053
:1050B0002C03032C30200838C800C8380800000032
:1050C000203F2000000010080808C83808002038D9
:1050D000262120201800000000FE0202020000002D
:1050E000007F40404000000C30C000000000000085
:1050F00000010638C00000020202FE00000000406D
:1051000040407F0000000000040202020400000092
:10511000000000000000000000000000000080808F
:105120008080808080800002020400000000000077
:105130000000000000000000808080800000001956
:10514000242222223F2008F8008080000000003F37
:10515000112020110E000000008080800000000E51
:10516000112020201100000000808088F800000E2F
:10517000112020103F200000808080800000001F50
:10518000222222221300008080F0888888180020C4
:10519000203F202000000000808080808000006B85
:1051A00094949493600008F8008080800000203F71
:1051B000210000203F20008098980000000000207F
:1051C000203F20200000000000809898000000C0D0
:1051D0008080807F000008F8000080808000203FF1
:1051E00024022D302000000808F8000000000020F4
:1051F000203F202000008080808080808000203F31
:1052000020003F20003F8080008080800000203F01
:10521000210000203F200000808080800000001FCF
:10522000202020201F00808000808000000080FF60
:10523000A12020110E000000008080808000000E60
:10524000112020A0FF8080808000808080002020AE
:105250003F2120000100000080808080800000331A
:10526000242424241900008080E0808000000000B5
:10527000001F202000008080000000808000001FB0
:10528000202020103F20808080000080808000014E
:105290000E300806010080800080008080800F3082
:1052A0000C030C300F000080800080808000002004
:1052B000312E0E312000808080000080808080812F
:1052C0008E701806010000808080808080000021A0
:1052D000302C2221300000000000807C02020000FF
:1052E0000000003F404000000000FF000000000000
:1052F0000000FF0000000002027C8000000000406F
:10530000403F00000000000601010202040400000A
:10531000000000000000000000000000000000008D
:10532000000000000000000000000000000000007D
:10533000000000000000000000000000000000F07D
:10534000F0F0000000000000000000017F010000FC
:10535000000000000000001C1C1C000000000000F9
:105360008060301C8C60301C0C00000000000000CD
:10537000000000000000000000000000000000002D
:105380000000000000E00000000000E000000086D7
:10539000E69F86868686E69F860000011F01010142
:1053A00001011F010100000080C06020F820E0C062
:1053B0000000000003070C18FF70E18100000000EE
:1053C000070F10107F100F07000080602060800022
:1053D0000000E02000000F3020309F70DC371030DC
:1053E000C0000000100E030007181018070000008E
:1053F000C02020E0C0000000000080E01F38E887E7
:1054000003C43C040000070F1810100B070D101008
:10541000080000808C4C38000000000000000000F4
:10542000000000000000000000000000000000007C
:1054300000000000000000000000000080E03008D4
:1054400004000000000000FEFF010000000000005A
:1054500000000000030F1820400000040830E08026
:105460000000000000000000000001FFFE0000003E
:105470000000004020180F030000000000000000A2
:1054800000000000C00000000000004266663C18FA
:10549000FF183C66664200000000000003000000A8
:1054A000000000000000000080000000000000106C
:1054B00010101010FF10101010100000000000005D
:1054C00003000000000000000000000000000000D9
:1054D000000000000000000000000000000000804C
:1054E0008C4C3800000000000000000000000000AC
:1054F000000000000000001010101010101010101C
:10550000100000000000000000000000000000008B
:10551000000000000000000000000000000000008B
:1055200000000000000000001C1C1C000000000027
:1055300000000000000000000000E0380C00000047
:10554000000080701C03000000000060380E0100A5
:10555000000000000000000080C060202060C080CB
:10556000000000FEFF010000000001FFFE0000013E
:10557000070E181010180E0701000000808080C070
:10558000E000000000000000000000FFFF0000003D
:10559000000000001010101F1F10101000000080ED
:1055A000402020202060C0800000000303008040D5
:1055B00020381F070000001C1A1918181818181F87
:1055C00000000080C020202060C080000000000398
:1055D00003001010182FE780000000070F101010B4
:1055E00010180F070000000000000000C0E0F000ED
:1055F000000000C0B088868180FFFF80800000002E
:1056000000000010101F1F1010000000E06060601C
:1056100060606060000000003F1008080818F0E0BB
:10562000000000070B101010101C0F0300000000FA
:1056300080C040202020E0C0000000FCFF211008B6
:10564000080818F0E0000001070C18101010080FEF
:1056500003000000C0E06060606060E06000000087
:1056600003000000E0180700000000000000001F19
:105670001F00000000000080C0602020202060C0CB
:1056800080000087EF2C1818303068CF83000007A7
:105690000F0810101010180F07000000C0C02020C5
:1056A0002020C0800000001F3F604040402010FFCD
:1056B000FE0000000C1C101010080F03000000007A
:1056C0000000000000000000000000000000000ECC
:1056D0000E0E0000000000000000001C1C1C00005A
:1056E00000000000000000000000000000000000BA
:1056F0000000000C0C00000000000000000000583A
:105700003800000000000000000000000080402081
:10571000100000001028448201000000000000007A
:10572000000000000102040810000000000000005A
:1057300000000000000000848484848484848484C5
:1057400084000000000000000000000000000000D5
:105750001020408000000000000000000000000059
:10576000018244281000000010080402010000001B
:10577000000000C020201010101030E0C000000316
:10578000030000F010080C070300000000001C1CC0
:105790001C0000000000000000C0406020202040ED
:1057A000C00000FCFF01F00E03C1FE03807F00017A
:1057B000070E08111110110904020000000080E01A
:1057C000E000000000000000807C4340477FF8803C
:1057D000000010181F1000000000131F1C1020E014
:1057E000E02020202060C080000000FFFF1010108B
:1057F00010182FE78000101F1F1010101010180F26
:105800000700000080C0402020202060E00000FC55
:10581000FF0100000000000001000001070E181049
:1058200010100804030020E0E02020202040C08069
:10583000000000FFFF000000000001FFFE00101F3D
:105840001F10101018080E07010020E0E020202093
:1058500020202060800000FFFF101010107C00004E
:105860000000101F1F10101010101018060020E06C
:10587000E020202020206060800000FFFF1010103A
:10588000107C00000100101F1F100000000000002D
:105890000000000080C06020202040E0000000FCEC
:1058A000FF0100004040C0C140400001070E181039
:1058B00010100F0F000020E0E0200000000020E0AA
:1058C000E02000FFFF101010101010FFFF00101F4D
:1058D0001F1000000000101F1F100000202020E0FB
:1058E000E020202000000000000000FFFF0000007A
:1058F000000000001010101F1F101010000000000A
:105900000000202020E0E020202000000000000017
:1059100000FFFF0000000060E0808080C07F3F004B
:10592000000020E0E020000020A06020200000FF18
:10593000FF30187CE3C000000000101F1F100000A3
:1059400001131F1C181020E0E020000000000000E0
:10595000000000FFFF000000000000000000101F1A
:105960001F10101010101018060020E0E0E00000DA
:105970000000E0E0E02000FF013FFEC0E01E01FF6C
:10598000FF00101F1000031F0300101F1F1020E056
:10599000E0C0000000000020E02000FF0003071C22
:1059A00078E08000FF00101F100000000000030FCF
:1059B0001F00000080C060202060C080000000FE4A
:1059C000FF010000000000FFFE000001070E18109C
:1059D00010180C07010020E0E0202020202060C0EB
:1059E000800000FFFF2020202020301F0F00101F0C
:1059F0001F100000000000000000000080C06020B8
:105A00002060C080000000FEFF010000000000FFD9
:105A1000FE000001070E1111133C7C67210020E0FD
:105A2000E0202020202060C0800000FFFF10103008
:105A3000F0D0080F0700101F1F10000000030F1CFC
:105A400010100080C060202020204040E0000007AF
:105A50000F0C1818303060E08100001F0C08101087
:105A60001010180F07008060202020E0E020202088
:105A700060800100000000FFFF0000000001000046
:105A80000000101F1F100000000020E0E0200000B8
:105A900000000020E02000FFFF00000000000000E8
:105AA000FF0000070F1810101010100807002060EA
:105AB000E0E02000000020E060200000077FF88088
:105AC00000807C03000000000000071F1C0700008E
:105AD000000020E0E02000E0E0200020E0200007BF
